:020000040800F2
:100000009004002045010008353600083736000806
:100010003B3600083F360008433600080000000069
:10002000000000000000000000000000473600084B
:1000300049360008000000004B3600084D36000825
:100040005F0100085F0100085F0100085F01000810
:100050005F0100085F0100085F0100085F01000800
:100060005F0100085F0100085F0100085F010008F0
:100070005F0100085F0100085F0100085F010008E0
:100080005F0100085F0100085F0100085F010008D0
:100090005F0100085F0100085F0100085F010008C0
:1000A0005F0100085F0100085F0100085F010008B0
:1000B0005F0100085F0100085F0100085F010008A0
:1000C0005F0100085F0100085F0100085F01000890
:1000D0005F0100085F0100085F0100085F01000880
:1000E0005F0100085F0100085F0100085F01000870
:1000F0005F0100085F0100085F0100085F01000860
:100100005F0100085F0100085F0100085F0100084F
:100110005F0100085F0100085F0100085F0100083F
:100120005F0100085F0100085F0100085F0100082F
:10013000DFF80CD003F0E4FC00480047AD350008C0
:10014000900400200648804706480047FEE7FEE787
:10015000FEE7FEE7FEE7FEE7FEE7FEE7FEE7FEE777
:10016000B92900083101000831490143314A1160C1
:10017000704770B5002100230F22C4780CB32D4CBA
:10018000246804F4E064C4F5E064210AC1F10403C6
:10019000CA40447804FA03F18478144021430901E9
:1001A000254C0678A155047804F01F050124AC40C5
:1001B00005786D114FF0E02606EB8505C5F8004186
:1001C00009E0047804F01F050124AC401B4D0678BB
:1001D000761145F8264070BD194A0A400243154B76
:1001E0001B1F1A60704739B1124A121D1268024370
:1001F000104B1B1D1A6006E00E4A121D1268824346
:100200000C4B1B1D1A607047042808D14FF0E021E9
:10021000096941F004014FF0E022116107E04FF05D
:10022000E021096921F004014FF0E02211617047DB
:100230000000FA050CED00E000E400E080E100E0E1
:1002400080FFFF1F10B50446FA48844208D10121FF
:10025000401501F0E3F90021601501F0DFF917E026
:10026000F548844208D10121001501F0D7F9002199
:10027000201501F0D3F90BE0F048844208D10121A8
:10028000C80301F0CBF900214FF4004001F0C6F99A
:1002900010BD30B50246002000235068E84C2040D5
:1002A0000D790C6844EA0524204350609068E54CC1
:1002B0002040D1E902542C434D7944EA45042043BF
:1002C0009060D06A20F470000C7C641EE4B223437A
:1002D00040EA0350D06230BD0021016001714171DC
:1002E0008160C16001210174704721B1826842F0D0
:1002F0000102826003E0826822F00102826070479E
:1003000021B1826842F48072826003E0826822F444
:1003100080728260704710B50023CBB21AB1446876
:100320001C43446002E044689C43446010BD816803
:1003300041F0080181607047014600208A6812F090
:10034000080F01D0012000E000207047816841F0D3
:10035000040181607047014600208A6812F0040F92
:1003600001D0012000E00020704721B1826842F4F2
:10037000A002826003E0826822F4A00282607047DB
:10038000014600208A6812F4800F01D0012000E0AD
:100390000020704710B50A4600210023416821F46F
:1003A0006041531E41EA4331416010BD21B14268B2
:1003B00042F40062426003E0426822F4006242605C
:1003C0007047F0B504460D4600200021092D11DDCF
:1003D000E068A5F10A0606EB4607072606FA07F1CC
:1003E0008843A5F10A0606EB460603FA06F1084320
:1003F000E0600CE0206905EB4507072606FA07F1E7
:10040000884305EB450603FA06F108432061072AF5
:100410000FDA606B561E06EB86071F2606FA07F1F9
:100420008843561E06EB860605FA06F1084360630C
:1004300022E00D2A0FDA206BD61F06EB86071F2657
:1004400006FA07F18843D61F06EB860605FA06F181
:100450000843206310E0E06AA2F10D0606EB860770
:100460001F2606FA07F18843A2F10D0606EB860661
:1004700005FA06F10843E062F0BD21B1826842F45A
:100480008012826003E0826822F4801282607047EA
:100490000146C86C80B2704766484C3000687047AF
:1004A00021B1426842F48062426003E0426822F473
:1004B00080624260704721B1426842F480524260DB
:1004C00003E0426822F48052426070470A460021ED
:1004D000816821F4E04111438160704721B1826855
:1004E00042F40042826003E0826822F400428260AB
:1004F000704721B1826842F40212826003E0826890
:1005000022F4021282607047014600208A6812F4C9
:10051000001F01D0012000E000207047F0B5044624
:100520001546002000220026092911DDE068A1F10E
:100530000A0707EB470C072707FA0CF29043A1F1D3
:100540000A0707EB470703FA07F21043E0600CE0E5
:10055000206901EB410C072707FA0CF2904301EBED
:10056000410703FA07F210432061A06BC0F3015664
:10057000EF1C06F1010CA7EB0C0707EB870C1F27FC
:1005800007FA0CF29043EF1C06F1010CA7EB0C07E5
:1005900007EB870701FA07F21043A063F0BD10B51F
:1005A0000A4600210023816B21F44011531E41EAC9
:1005B0000351816310BD08B5002300930090009B98
:1005C0000B440093009B1A6008BD08B5024600204A
:1005D0000090009201F12800009B184400900098C0
:1005E000006880B208BD0A4600214168164B1940D8
:1005F0001143416070474162826270470A460021A0
:10060000416821F01F0111434160704740B1094921
:100610000831096841F40001064A0832116007E018
:1006200004490831096821F40001024A08321160C6
:10063000704700000024014000280140003C0140B8
:10064000FFFEF0FFFDF7F1FFFFFD3FFF0246002038
:1006500013680B4201D0012000E000207047CA431C
:100660000260704770B502460020002300240B1280
:100670005568CEB205EA060415681D4202D00CB1D9
:10068000012000E0002070BD00220A12D343036065
:100690007047000001684FF6FE72114001600021B2
:1006A000016041608160C1608C49884208D18B49FA
:1006B0000839496841F00F01884A083A51608AE0D8
:1006C00086491431884208D184490839496841F083
:1006D000F001824A083A51607DE080492831884221
:1006E00008D17E490839496841F470617B4A083A6B
:1006F000516070E079493C31884208D17749083926
:10070000496841F47041754A083A516063E07349A1
:100710005031884208D171490839496841F4702143
:100720006E4A083A516056E06C496431884208D1FB
:100730006A490839496841F47001684A083A5160C9
:1007400049E066497831884208D1644908394968E6
:1007500041F07061614A083A51603CE0604988426A
:1007600006D1011F096841F00F01021F116032E03C
:100770005B491431884208D15949091F096841F081
:10078000F001574A121F116025E05549283188426F
:1007900008D15349091F096841F47061504A121F7A
:1007A000116018E04E493C31884208D14C49091F7C
:1007B000096841F470414A4A121F11600BE0484930
:1007C0005031884207D14649091F096841F4702118
:1007D000434A121F1160704710B50022026847F6A5
:1007E000F0739A430C6A8B6823430C6923434C696A
:1007F00023438C692343CC6923434C6A23438C6A8B
:1008000023431A430260CB6843600B6883604B68E4
:10081000C36010BD0021016041608160C160016161
:1008200041618161C161016241628162704721B1B0
:10083000026842F00102026004E002684FF6FE73B3
:100840001A40026070471AB103680B43036002E06C
:1008500003688B43036070474160704701464868F6
:1008600080B2704701460020002211F0805F03D063
:100870001B4B083B1A6802E0184B083B1A680A42F7
:1008800001D0012000E00020704710F0805F03D00D
:100890001349091F086002E0104908394860704791
:1008A00001460020002211F0805F03D00C4B083B72
:1008B0001A6802E0094B083B1A680A4201D001207D
:1008C00000E00020704710F0805F03D00449091F4A
:1008D000086002E00149083948607047080002409A
:1008E00008040240002044490860091D0860091DF1
:1008F0000860091D086041483F491431086070478D
:1009000000213D498279002A3AD00A4612680368DC
:100910009A430B461A600A1D126803689A430B1D1E
:100920001A60027911440A6803681A430A60324A5D
:100930000832126803689A432F4B08331A601A1D55
:10094000126803689A432C4B0C331A604279102AC0
:100950000ED11A1F126803681A43274B08331A6016
:100960001A1D126803681A43234B0C331A600DE0FA
:100970002149427911440A6803681A430A6005E074
:10098000027911440A6803689A430A60704700219B
:10099000016001710C21417100218171704716497C
:1009A000103109680143144A103211607047014642
:1009B0000020114A143212680A4201D0012000E0DE
:1009C000002070470C491431086070470146002030
:1009D0000022094B1B6803EA0102074B14331B6812
:1009E0000B4202D00AB1012000E00020704702490A
:1009F000143108607047000000040140FFFF0F0041
:100A000001460020FE4A106800F0380008431060DC
:100A10007047FB49096821F00801F94A1160114645
:100A20000968014311607047F549096821F0100118
:100A3000F34A116011460968014311607047F1489B
:100A4000EF494860F04848607047EE48EC4948601C
:100A5000ED4848607047EA48006940F08000E84986
:100A600008617047E648006940F08000E449086189
:100A700070470420E249C96811F0010F01D001203C
:100A80000EE0DF49C96811F0040F01D0022007E031
:100A9000DB49C96811F0100F01D0032000E00420E9
:100AA000704700B502460423FFF7E3FF034603E067
:100AB000FFF7DFFF0346521E012B01D1002AF7D1B9
:100AC00002B90523184600BD30B5044604254FF48D
:100AD0003020FFF7E6FF0546042D17D1C84800690E
:100AE00040F00200C649086108464461006940F0D0
:100AF000400008614FF43020FFF7D3FF0546C0489F
:100B0000006941F6FD710840BD490861284630BDC5
:100B100010B504244FF43020FFF7C3FF0446042C23
:100B200016D1B748006940F00400B549086108468D
:100B3000006940F0400008614FF43020FFF7B1FF3A
:100B40000446AF48006941F6FB710840AC490861B2
:100B5000204610BD00B502460423FFF78AFF034676
:100B600003E0FFF786FF0346521E012B01D1002A46
:100B7000F7D102B90523184600BD10B504244FF47F
:100B80003020FFF7E7FF0446042C16D19C4800698B
:100B900040F004009A4908610846006940F04000AE
:100BA00008614FF43020FFF7D5FF044694480069F0
:100BB00041F6FB71084092490861204610BD0020B3
:100BC0008F49C96911F0020F01D0012000E0002017
:100BD000704730B5A5250424FFF7F1FF00B10025CB
:100BE0004FF43020FFF75DFF0446042C3AD18548CE
:100BF00083498860844888600846006940F0200086
:100C000008610846006940F0400008614FF4302058
:100C1000FFF747FF0446042C1BD17948006941F6D1
:100C2000DF710840764908610846006940F010000D
:100C3000086176480580E002FFF733FF0446052C83
:100C400010D06F48006941F6EF7108406C490861A7
:100C500008E0052C06D06A48006941F6EF710840AB
:100C600067490861204630BD78B506460C46042524
:100C700000200090E802FFF714FF0546042D24D160
:100C80005F48006940F001005D4908613480E80276
:100C9000FFF707FF0546042D10D1B01C0090200C73
:100CA00000990880E802FFF7FCFE054654480069F9
:100CB00041F6FE7108405249086106E0504800695B
:100CC00041F6FE7108404E490861284678BD70B56E
:100CD00004460D460426F002FFF7E3FE0646042E06
:100CE00011D14748006940F001004549086125805D
:100CF000F002FFF7D6FE06464148006941F6FE7154
:100D000008403F490861304670BD70B505460E4643
:100D10000424E002FFF7C5FE0446042C17D139482D
:100D200037498860384888600846006940F01000FC
:100D300008612E80E002FFF7B4FE0446052C06D0C1
:100D40002F48006941F6EF7108402D49086120469F
:100D500070BD2DE9F04304464FF6FF763746B046A6
:100D6000B1460425E443E6B2C4F30727C4F30748B9
:100D70004FEA1469E802FFF794FE0546042D49D1B5
:100D800020481F498860204888600846006940F074
:100D900010000861FF2E06D01C4808300680E802CB
:100DA000FFF77FFE0546042D08D1FF2F06D0174818
:100DB0000A300780E802FFF774FE0546042D0AD1C9
:100DC000B8F1FF0F07D011480C30A0F80080E802FE
:100DD000FFF767FE0546042D0AD1B9F1FF0F07D0D2
:100DE0000A480E30A0F80090E802FFF75AFE0546C8
:100DF000052D0FD00248006941F6EF71084007E069
:100E00000020024023016745AB89EFCD00F8FF1FAA
:100E1000664908612846BDE8F08330B505460424DC
:100E20004FF43020FFF73DFE0446042C41D16048CA
:100E30005E4988605F4888600846006940F020008D
:100E400008610846006940F0400008614FF4302016
:100E5000FFF727FE0446042C22D15448006941F6CE
:100E6000DF710840514908610846006940F01000F0
:100E700008611DB100205049088002E0A5204E49BC
:100E800008804FF43020FFF70CFE0446052C10D0EC
:100E90004648006941F6EF7108404449086108E09E
:100EA000052C06D04148006941F6DF7108403F49F2
:100EB0000861204630BDF0B505460E4617460424AD
:100EC0003B483A4988603B488860E002FFF7E9FD0B
:100ED0000446042C19D13548006940F0100033490C
:100EE000086147F0F800304328433349891C0880E3
:100EF000E002FFF7D6FD0446052C06D02B4800691A
:100F000041F6EF710840294908612046F0BD2748A5
:100F1000C069800870472548006A7047002023494F
:100F2000096811F0200F01D0012000E00020704777
:100F300029B11E4A126902431C4B1A6104E01B4A84
:100F400012698243194B1A6170470146002001293A
:100F500008D1164AD26912F0010F01D0012008E031
:100F6000002006E0114AD2680A4201D0012000E0C8
:100F7000002070470D49C860704704200B49C968BC
:100F800011F0010F01D001200EE00849C96811F0ED
:100F9000040F01D0022007E00449C96811F0100FC6
:100FA00001D0032000E00420704700000020024030
:100FB00023016745AB89EFCD00F8FF1F10B504464C
:100FC000CA48844208D10121042000F027FB0021F7
:100FD000042000F023FB46E0C548844208D10121EB
:100FE000082000F01BFB0021082000F017FB3AE06E
:100FF000C048844208D10121102000F00FFB0021DD
:10100000102000F00BFB2EE0BB48844208D10121E8
:10101000202000F003FB0021202000F0FFFA22E056
:10102000B648844208D10121402000F0F7FA00219F
:10103000402000F0F3FA16E0B148844208D10121C3
:10104000802000F0EBFA0021802000F0E7FA0AE0AF
:10105000AC48844207D10121801500F0DFFA00215D
:10106000A01500F0DBFA10BD10B50121084600F014
:10107000D5FA0021012000F0D1FA10BD2DE9F04190
:10108000024600250026002000230024002791F8B6
:1010900003C00CF00F0591F803C01CF0100F03D033
:1010A00091F802C04CEA050591F800C0BCF1000FB0
:1010B00031D0146800202BE04FF0010C0CFA00F343
:1010C000B1F800C00CEA03069E4220D183004FF025
:1010D0000F0C0CFA03F7BC4305FA03FC4CEA0404BA
:1010E00091F803C0BCF1280F06D14FF0010C0CFAA7
:1010F00000FCC2F814C00AE091F803C0BCF1480F2C
:1011000005D14FF0010C0CFA00FCC2F810C0401CD5
:101110000828D1D31460B1F800C0BCF1FF0F34DD52
:10112000546800202EE000F1080C4FF0010808FA86
:101130000CF3B1F800C00CEA03069E4221D18300F3
:101140004FF00F0C0CFA03F7BC4305FA03FC4CEA12
:10115000040491F803C0BCF1280F05D100F1080C7C
:1011600008FA0CF8C2F8148091F803C0BCF1480FDB
:1011700007D100F1080C4FF0010808FA0CF8C2F88A
:101180001080401C0828CED35460BDE8F0814FF693
:10119000FF710180022181700421C17070470246F5
:1011A000002093680B4201D0012000E0002070472E
:1011B0000146886880B2704702460020D3680B421F
:1011C00001D0012000E0002070470146C86880B2CD
:1011D000704701617047416170470AB1016100E0E9
:1011E00041617047C16070474FF480320A438261A9
:1011F0008161826182698269704702460020424BA8
:1012000018684FF68073184040EA021008433E4BBE
:10121000186070473D49C8617047F0B50A46002321
:1012200000240021002500F00046B6F1004F02D155
:10123000354EF16901E0344E7168C0F3034583B265
:1012400000F44016B6F5401F08D121F070612E4E13
:10125000766826F070662C4F7E6012E000F48016EF
:10126000B6F5801F06D1032606FA05F4A14341F026
:10127000706106E0460D360103FA06F6B14341F00F
:10128000706122B1460D360103FA06F6314300F0D3
:101290000046B6F1004F02D11B4EF16101E01A4E3B
:1012A0007160F0BD30B500228B071C0F0F2303FACD
:1012B00004F2154B08338C1053F824309343124C2E
:1012C00008348D1044F8253023468C1053F8243010
:1012D0008C07240F00FA04F423430B4C08348D10C0
:1012E00044F8253030BD0A490860704700080140C5
:1012F000000C0140001001400014014000180140A2
:10130000001C01400020014000000140000020427C
:10131000DC002042DD48006840F00100DB49086045
:1013200008464068DA490840D849486008460068DD
:10133000D8490840D54908600846006820F4802054
:1013400008600846406820F4FE0048604FF41F0023
:1013500088607047CD49096821F48031CB4A11601B
:101360001146096821F480211160B0F5803F03D057
:10137000B0F5802F0ED106E0C449096841F48031F0
:10138000C24A116007E0C149096841F4A021BF4A7F
:10139000116000E000BF00BF704710B50146002299
:1013A000002300204A11012A02D1B84C236806E02C
:1013B000022A02D1B54C236A01E0B44C636A01F001
:1013C0001F02012494401C4201D0012000E00020B3
:1013D00010BD38B5002000900024002500BF31204A
:1013E000FFF7DBFF05460098401C00900098B0F521
:1013F000A06F01D0002DF2D03120FFF7CEFF08B151
:10140000012400E00024204638BD014600209F4A08
:10141000106820F0F80040EAC100106070479E4953
:101420000860704702460020984B586820F47C10F2
:1014300042EA01031843954B586070479649086685
:10144000704701460020914A506820F0030008438D
:10145000506070478D48406800F00C0070470146AE
:1014600000208A4A506820F0F0000843506070471E
:1014700001460020854A506820F4E060084350602F
:10148000704701460020814A506820F4605040EACD
:10149000C1005060704729B17C4A527A02437B4BAD
:1014A0005A7204E0794A527A8243784B5A727047F2
:1014B0007A490860704701460020744A506820F459
:1014C00040400843506070470021754A11706F4AD0
:1014D00082F82010012802D0042808D103E001215D
:1014E0006F4A117004E005216D4A117000E000BFE1
:1014F00000BF70476B49086070476449096A01433F
:10150000624A11627047674944390860704730B5D4
:1015100000210022002400235C4D6D6805F00C01C1
:1015200021B1042905D0082923D105E05E4D0560CD
:1015300022E05D4D05601FE0544D6D6805F47012AA
:10154000524D6D6805F48034022505EB92421CB9BA
:10155000564D554305600BE04C4D6D6815F4003F4A
:1015600003D0524D5543056002E04F4D5543056091
:1015700002E04D4D056000BF00BF444D6D6805F0B1
:10158000F00109094A4D6B5C0568DD4045603F4D3F
:101590006D6805F4E061090A454D6B5C4568DD4006
:1015A00085603A4D6D6805F46051C90A404D6B5C29
:1015B0004568DD40C560354D6D6805F44041890BD7
:1015C0003C4D6B5CC568B5FBF3F5056130BD29B1D9
:1015D0002E4A526902432D4B5A6104E02B4A52694C
:1015E00082432A4B5A61704729B1284A92690243C3
:1015F000264B9A6104E0254A92698243234B9A6103
:10160000704729B1214AD2690243204BDA6104E0D4
:101610001E4AD26982431D4BDA61704729B11B4AC9
:10162000D2680243194BDA6004E0184AD268824358
:10163000164BDA60704729B1144A12690243134B02
:101640001A6104E0114A12698243104B1A61704713
:1016500014494039086070470F49C86470470B4906
:10166000C87170470948406A40F080700749486275
:10167000704701460020054A92680A4201D00120C5
:1016800000E0002070470149887270470010024056
:101690000000FFF8FFFFF6FE00004242D800424281
:1016A000201002408004424200127A0000093D00EE
:1016B000000000201000002010B50446FE488442BF
:1016C00008D10121C014FFF7A9FF0021E014FFF7A2
:1016D000A5FFC4E0B4F1804F08D101210846FFF70F
:1016E000AAFF00210120FFF7A6FFB8E0F3488442DB
:1016F00008D101210220FFF79EFF00210220FFF701
:101700009AFFACE0EE48844208D101210420FFF7A3
:1017100092FF00210420FFF78EFFA0E0E9488442F9
:1017200008D101210820FFF786FF00210820FFF7DC
:1017300082FF94E0E448844208D101211020FFF7A1
:101740007AFF00211020FFF776FF88E0DF4884420F
:1017500008D101212020FFF76EFF00212020FFF794
:101760006AFF7CE0DA48844208D101214014FFF787
:1017700055FF00216014FFF751FF70E0D548844207
:1017800009D10121C804FFF749FF00214FF40020CF
:10179000FFF744FF63E0D048844209D101210805E6
:1017A000FFF73CFF00214FF48010FFF737FF56E0B2
:1017B000CA48844209D101214805FFF72FFF0021C3
:1017C0004FF40010FFF72AFF49E0C548844208D1D2
:1017D00001214020FFF72FFF00214020FFF72BFFC2
:1017E0003DE0C048844208D101218020FFF723FF5B
:1017F00000218020FFF71FFF31E0BB48844208D161
:1018000001218015FFF717FF0021A015FFF713FF37
:1018100025E0B648844209D101210804FFF7FEFE05
:1018200000214FF48030FFF7F9FE18E0B048844201
:1018300009D101214804FFF7F1FE00214FF40030E7
:10184000FFF7ECFE0BE0AB48844208D1012188048D
:10185000FFF7E4FE00214FF48020FFF7DFFE10BD0C
:1018600000220288944B98420ED0994B98420BD09C
:10187000B0F1804F08D0914B984205D0904B9842E0
:1018800002D0904B984204D14FF68F731A404B8888
:101890001A438D4B984207D08C4B984204D04FF698
:1018A000FF431A40CB881A4302808B8883850B88BC
:1018B0000385814B98420BD0854B984208D08B4BC7
:1018C000984205D08A4B984202D08A4B984201D167
:1018D0000B7A038601238382704770B500240022AF
:1018E0000023058C4FF6FE7635400584028C8388F4
:1018F000048B4FF68F752C40B51E2C400D882C4361
:10190000751E2A400D892A434D882A436A4DA842F4
:101910000BD06F4DA84208D0744DA84205D0744D2D
:10192000A84202D0734DA84213D14FF6F7752A4052
:101930004D892A434FF6FB752A408D882A434FF67E
:10194000FF652B404FF6FF552B408D892B43CD89EA
:101950002B4383800483CD888586028470BD70B557
:10196000002400220023058C4FF6EF7635400584D5
:10197000028C8388048B48F6FF752C404FF6FF4598
:101980002C400D884FF6FF7606EA05252C434FF6CE
:10199000DF752A400D8906EA05152A434D8806EAB7
:1019A00005152A43444DA84202D0494DA8421DD1F5
:1019B0004FF67F752A404D894FF6FF7606EA0515EA
:1019C0002A434FF6BF752A408D8806EA05152A433B
:1019D0004FF6FF352B404FF2FF752B408D8906EAFD
:1019E00085052B43CD8906EA85052B438380048337
:1019F000CD880587028470BD70B5002400220023C5
:101A0000058C4FF6FF6635400584028C8388848BF5
:101A10004FF68F752C404FF6FC752C400D882C43EB
:101A20004FF6FF552A400D894FF6FF7606EA052549
:101A30002A434D8806EA05252A431F4DA84202D0B5
:101A4000234DA8421DD14FF2FF752A404D894FF614
:101A5000FF7606EA05252A434FF6FF352A408D8892
:101A600006EA05252A434EF6FF752B404DF6FF7515
:101A70002B408D8906EA05152B43CD8906EA05150D
:101A80002B4383808483CD888587028470BD70B5A5
:101A9000002200230024058C4EF6FF763540058495
:101AA000038C8488828B48F6FF752A404FF6FF45E9
:101AB0002A400D8820E00000002C01400004004076
:101AC00000080040000C00400010004000140040DE
:101AD00000340140004C01400050014000540140DE
:101AE00000180040001C0040002000400040014061
:101AF00000440140004801404FF6FF7606EA052504
:101B00002A434DF6FF752B400D8906EA05352B4318
:101B10004D8806EA05352B43FA4DA84202D0FA4D0E
:101B2000A84208D14BF6FF752C408D894FF6FF7601
:101B300006EA85152C4384808283CD88A0F8405026
:101B4000038470BD828B4FF2FF331A408283828BF5
:101B50004FF6FF7303EA01231A4382837047F0B5FF
:101B60000C461546002200210026078C4EF6FF7C0D
:101B700007EA0C070784828B018C4FF6FF7707EA90
:101B8000043640F6FF473A404FF6FF7707EA05274D
:101B90003A434FF6FF7707EA03373A43D94FB84243
:101BA0000ED0D94FB8420BD0B0F1804F08D0D74FEC
:101BB000B84205D0D64FB84202D0D64FB84206D16F
:101BC0004DF6FF77394046F48057394305E047F634
:101BD000FF57394044F48057394382830184F0BD74
:101BE000828B4FF6F3731A408283828B0A4382837F
:101BF0007047F0B50C461546002200210026078CE0
:101C00004FF6FF6C07EA0C070784828B018C4FF6B6
:101C1000FF7707EA04264FF60C773A404FF6FF7736
:101C200007EA03172F433A43B64FB8420ED0B64FD8
:101C3000B8420BD0B0F1804F08D0B44FB84205D0B5
:101C4000B34FB84202D0B34FB84206D14FF6FF5758
:101C5000394046F48077394305E04FF2FF57394069
:101C600044F48077394382830184F0BD028B4FF2C4
:101C7000FF331A400283028B4FF6FF7303EA0123FE
:101C80001A4302837047F0B50C4615460022002126
:101C90000026078C4FF6EF7C07EA0C070784028BBF
:101CA000018C4FF6FF7707EA041640F6FF473A40EB
:101CB0004FF6FF7707EA03373A434FF6FF7707EA15
:101CC00005273A438F4FB8420ED08F4FB8420BD002
:101CD000B0F1804F08D08D4FB84205D08C4FB8423C
:101CE00002D08C4FB84206D14FF6DF77394046F02C
:101CF0001007394305E04FF65F77394044F010078D
:101D0000394302830184F0BD028B4FF6F3731A400E
:101D10000283028B0A4302837047F0B50C461546D6
:101D200000220021068C4FF6FE773E400684028B8F
:101D3000018C4FF60C7632407E1C06EA03162E43C9
:101D40003243704EB0420ED06F4EB0420BD0B0F165
:101D5000804F08D06D4EB04205D06D4EB04202D0DB
:101D60006C4EB04206D14FF6FD76314044F001068C
:101D7000314305E04FF6F576314044F0010631433A
:101D800002830184F0BD70B505460C465D4885426E
:101D90000ED05D4885420BD0B5F1804F08D05B482E
:101DA000854205D05A48854202D05A48854200D122
:101DB00000E000BF208850B92389A28861882846A6
:101DC000FFF7ABFFE1882846FFF79EFF25E020885C
:101DD00004280AD12389A28861882846FFF753FF87
:101DE000E1882846FFF742FF17E0208808280AD13B
:101DF0002389A28861882846FFF7FBFEE1882846F0
:101E0000FFF7EEFE09E02389A28861882846FFF7E4
:101E1000A6FEE1882846FFF795FE70BD2DE9F0414A
:101E200005460C4600260127608808B9022600E016
:101E30000026A088012801D1022700E00127208880
:101E4000A0B92389A28861882846FFF766FFE18848
:101E50002846FFF759FF23893A4631462846FFF7BF
:101E600012FFE1882846FFF701FF13E02389A288CB
:101E700061882846FFF707FFE1882846FFF7F6FE4E
:101E800023893A4631462846FFF747FFE18828462E
:101E9000FFF73AFFBDE8F0810A884B881A438B8828
:101EA0001A43CB881A430B891A434B891A438B89EF
:101EB0001A43A0F8442070474FF6FF71818000213B
:101EC0000180C18041800172704700210180418002
:101ED0008180C180018141818181C1817047002160
:101EE00001804180012181800021C18001817047F2
:101EF0000021018041808180C180018141818181F7
:101F000070470000002C01400034014000040040F4
:101F100000080040000C004021B1028842F001029C
:101F2000028004E002884FF6FE731A400280704778
:101F300031B1B0F8442042F40042A0F8442005E05A
:101F4000B0F84420C2F30E02A0F8442070471AB142
:101F500083890B43838102E083898B4383817047AC
:101F60008182704741EA0203A0F8483070471AB1F5
:101F700083890B43838102E083898B43838170478C
:101F800001894FF6F8721140018170470A4600211D
:101F900001894FF68F73194011430181704730B5A5
:101FA00004460D4629462046FFF7F0FF208940F001
:101FB0000700208130BD2DE9F04104460D4616464C
:101FC0001F46602D06D13B46012231462046FFF7D1
:101FD0005AFE05E03B46012231462046FFF79DFEB2
:101FE00029462046FFF7D2FF208940F007002081D4
:101FF000BDE8F08130B50C4600210189C9B24FF629
:10200000FF7505EA0325154325432943018130BDAA
:102010002DE9F04105460E461746984600244346F2
:102020003A4631462846FFF7E5FF2C894FF6F8700F
:10203000044044F007044FF68F70044044F07004ED
:102040002C81BDE8F081F0B504460D4616461F46CA
:102050003B46324629462046FFF7CCFF208940F414
:1020600080402081F0BD0185828270470A460021B0
:1020700001884FF68F731940114301807047F0B506
:102080000C4615461E460021002200230189028BC2
:10209000038C4FF6F877394021434FF6FC473A401E
:1020A00040F201173A434FF6DD773B404FF6FF779A
:1020B00007EA06172F433B43018102830384F0BDE7
:1020C0000A460021018B4FF68F731940114301839B
:1020D00070470A460021018B48F6FF7319404FF6FE
:1020E000FF7303EA02231943018370470A46002164
:1020F000818B4FF68F7319401143818370470A46D5
:102100000021818B48F6FF7319404FF6FF7303EAF5
:10211000022319438183704721B1028842F0800273
:10212000028004E002884FF67F731A4002807047F5
:1021300021B1828842F00402828004E082884FF656
:10214000FB731A408280704721B1828842F00802F6
:10215000828004E082884FF6F7731A4082807047CD
:1021600021B1828842F00102828004E082884FF629
:10217000FE731A40828070470A460021018B4FF699
:10218000F77319401143018370470A460021018B00
:102190004FF2FF7319404FF6FF7303EA022319430E
:1021A000018370470A460021818B4FF6F77319406F
:1021B0001143818370470A460021818B4FF2FF73E0
:1021C00019404FF6FF7303EA0223194381837047D6
:1021D0000A460021018B4FF6FB731940114301831E
:1021E00070470A460021018B4FF6FF3319404FF626
:1021F000FF7303EA02231943018370470A46002153
:10220000818B4FF6FB7319401143818370470A4657
:102210000021818B4FF6FF3319404FF6FF7303EA1D
:1022200002231943818370470A460021018B4FF630
:102230007F7319401143018370470A460021018BC7
:10224000C1F30E014FF6FF7303EA02231943018322
:1022500070470A460021818B4FF67F731940114366
:10226000818370470A460021818BC1F30E014FF62E
:10227000FF7303EA02231943818370470A46002152
:10228000018C4FF6FD7319401143018470470A46D3
:102290000021018C4FF6F7731940114301847047F8
:1022A0000A460021018C4FF6DF7319404FF6FF7389
:1022B00003EA02131943018470470A460021018C86
:1022C0004FF67F7319404FF6FF7303EA0213194369
:1022D000018470470A460021018C4FF6FF531940D4
:1022E0004FF6FF7303EA02231943018470470A463D
:1022F0000021018C4FF2FF7319404FF6FF7303EA80
:1023000002231943018470470A460021018C4DF6CF
:10231000FF7319404FF6FF7303EA02331943018438
:10232000704730B5002301248C40A3B2048C9C4339
:102330000484048C02FA01F5ADB22C43048430BD50
:1023400030B5002304248C40A3B2048C9C43048445
:10235000048C02FA01F5ADB22C43048430BD70B593
:102360000346002000241846183001258D40ACB2E9
:102370001D8CA5431D8409B1082909D100EB61001A
:10238000056825F0700505600568154305600EE0D9
:102390000D1FC5F34E052844056825F4E04505608A
:1023A00005684FF6FF7606EA02263543056070BDE4
:1023B00021B1028842F00202028004E002884FF656
:1023C000FD731A400280704721B1028842F0040276
:1023D000028004E002884FF6FB731A4002807047C7
:1023E00021B1828842F08002828004E082884FF628
:1023F0007F731A408280704702884FF6F7731A4045
:10240000028002880A430280704782884FF68F73E9
:102410001A40828082880A438280704702894FF680
:10242000F8731A40028102890A43028170470289C7
:102430004FF67F731A40028102890A430281704776
:102440008184704781857047818670470187704716
:1024500081877047A0F84010704702884FF6FF430D
:102460001A40028002880A43028070470146888E23
:1024700070470146088F70470146888F70470146B4
:10248000B1F8400070470146888C70470146088DBE
:10249000704702460020138A0B4201D0012000E061
:1024A00000207047CA430282704730B502460020C0
:1024B00000230024158A05EA0103958905EA010431
:1024C00013B10CB1012000E0002030BDCA430282EC
:1024D0007047000010B50446FB48844209D1012131
:1024E0008803FFF79BF800214FF48040FFF796F830
:1024F00032E0F648844209D101214804FFF79BF8F5
:1025000000214FF40030FFF796F825E0F0488442B0
:1025100009D101218804FFF78EF800214FF48020B3
:10252000FFF789F818E0EB48844209D10121C8047B
:10253000FFF781F800214FF40020FFF77CF80BE053
:10254000E548844208D101210805FFF774F800210D
:102550004FF48010FFF76FF810BD2DE9F04786B0FB
:1025600005460E460024A24600BFA1460027B089BA
:1025700000B100BF2F462C8A4CF6FF700440F08853
:1025800004432C82AC894EF6F3100440B0883189A4
:102590000843718908430443AC81AC8A4FF6FF407D
:1025A0000440B0890443AC8201A8FEF7B0FFC648DE
:1025B000874202D1DDF810A001E0DDF80CA0A88967
:1025C00010F4004F08D00AEBCA0000EB0A10316883
:1025D0004900B0FBF1F807E00AEBCA0000EB0A1073
:1025E00031688900B0FBF1F86420B8FBF0F0040119
:1025F0002009642101FB1089A88910F4004F08D03C
:10260000322000EBC900B0FBF1F000F007000443FA
:1026100008E0322000EB09106421B0FBF1F000F07B
:102620000F0004432C8106B0BDE8F0874FF416512B
:10263000016000218180C18001810C214181002144
:102640008181704710B502460020108A4FF2FF03C7
:1026500018400B884C8823438C882343CC88234321
:102660001843108210BD0021018041808180C1800B
:10267000704721B1828942F40052828104E082894C
:102680004DF6FF731A4082817047F0B5034600246F
:10269000002600250020A1F510676A3F00D100BF89
:1026A0001846C1F3421401F01F06012707FA06F588
:1026B000012C01D10C3004E0022C01D1103000E0DB
:1026C00014301AB107682F43076002E00768AF4370
:1026D0000760F0BD1AB1838A0B43838202E0838ACC
:1026E0008B4383827047028A4FF6F0731A4002824E
:1026F000028A0A430282704782894FF2FF731A40AE
:10270000828182890A438281704721B1828942F0A5
:102710000202828104E082894FF6FD731A408281B1
:102720007047028A4FF6DF731A400282028A0A4318
:102730000282704721B1028A42F48042028204E0A0
:10274000028A4BF6FF731A4002827047C1F30802F7
:102750008280704701468888C0F3080070478189ED
:1027600041F0010181817047028BD2B20283028B5A
:1027700042EA012202837047028B02F47F42028305
:10278000028B0A430283704721B1828A42F0200201
:10279000828204E0828A4FF6DF731A408282704799
:1027A00021B1828A42F01002828204E0828A4FF6CE
:1027B000EF731A408282704721B1828A42F0080288
:1027C000828204E0828A4FF6F7731A408282704751
:1027D00021B1828942F40042828103E08289C2F3FE
:1027E0000E028281704721B1828A42F400628282A5
:1027F00004E0828A4FF2FF731A4082827047828A15
:102800004FF6FB731A408282828A0A4382827047A3
:1028100021B1828A42F00202828204E0828A4FF66B
:10282000FD731A408282704702460020B1F5007F96
:1028300000D100BF13880B4201D0012000E000202E
:10284000704701F40072B2F5007F00D100BFCA43A7
:102850000280704770B50246002400230025002046
:10286000A1F510666A3E00D100BFC1F3421501F028
:102870001F03012606FA03F3012D02D19689334086
:1028800006E0022D02D1168A334001E0968A3340D9
:102890000C12012606FA04F41688344013B10CB168
:1028A000012000E0002070BD10B500220023A1F53A
:1028B00010646A3C00D100BF0A1201249440A3B204
:1028C000DC43048010BD000000380140004400409B
:1028D00000480040004C0040005000400CB5002073
:1028E000019000906B48006840F4803069490860AE
:1028F00000BF6848006800F4003000900198401C58
:102900000190009818B90198B0F5A06FF1D1614815
:10291000006810F4003F02D00120009001E0002088
:1029200000900098012842D15B48006840F01000F8
:10293000594908600846006820F00300086008460E
:10294000006840F002000860524840685149486001
:102950000846406848600846406840F48060486027
:102960000846406820F47C1048600846406840F4FF
:10297000E81048600846006840F08070086000BFBA
:102980004448006810F0007FFAD04248406820F0C8
:102990000300404948600846406840F00200486033
:1029A00000BF3C48406800F00C000828F9D10CBD7D
:1029B00010B5FFF793FF10BD10B53648006840F022
:1029C00001003449086008464068344908403149EC
:1029D000486008460068324908402E4908600846A9
:1029E000006820F4802008600846406820F4FE005B
:1029F00048604FF41F008860FFF7DAFF4FF0006077
:102A00002849086010BD10B5002100200022214B8C
:102A10005B6803F00C0121B1042906D0082928D1F4
:102A200007E0214B214C236027E01F4B1F4C236004
:102A300023E0184B5B6803F47010164B5B6803F4DB
:102A40008032022303EB904022B9194B4343174CC9
:102A500023600DE00F4B5B6813F4003F04D0144B70
:102A60004343124C236003E00F4B43430F4C23605E
:102A700003E00D4B0D4C236000BF00BF054B5B68AE
:102A8000C3F303130B4CE15C084B1B68CB40074CB2
:102A9000236010BD00100240002002400000FFF83B
:102AA000FFFFF6FE08ED00E000127A00140000209F
:102AB00000093D001800002010B5FEF72BFC4FF474
:102AC0008030FEF747FCFEF784FCFE49087008469C
:102AD0000078012826D11020FDF7A6FF0220FDF77F
:102AE0008FFF0020FEF7BBFC4FF48060FEF7C0FCB8
:102AF0000020FEF7C6FC4FF4E0114FF48030FEF7E3
:102B000091FC0120FEF79AFC00BF3920FEF745FC3E
:102B10000028FAD00220FEF794FC00BFFEF79AFCD2
:102B20000828FBD101217D20FEF75EFD01218803ED
:102B3000FEF75AFD0121C802FEF756FD01210846A5
:102B4000FEF75FFD01214802FEF74EFD10BD10B5F6
:102B50004FF40070DC4908801820C870032088708A
:102B6000DA48FEF78BFA4FF48060D74908800420DA
:102B7000C870D648FEF782FA4FF44060D249088008
:102B80000420C870D248FEF779FA4FF4A850CE4915
:102B900008801020C870CF48FEF770FA2820CA4974
:102BA00008800420C870CB48FEF768FA1820C64990
:102BB00008801020C87003208870C748FEF75EFAAE
:102BC00010BD10B500214FF00060FDF705FB4FF47C
:102BD000E060FDF7C9FA09210220FEF763FB4FF41C
:102BE0000070BE490860002008710C204871012067
:102BF00088710846FDF784FE1720B9490870002047
:102C0000487088700120C8700846FDF7B2FA0421A8
:102C10000846FEF747FB1020B04908600020087105
:102C20000C204871012088710846FDF769FE0A20D2
:102C3000AB4908700020487088700120C8700846B1
:102C4000FDF797FA05210420FEF72CFB2020A3496D
:102C50000860002008710C20487101208871084626
:102C6000FDF74EFE17209E490870002048708870BE
:102C70000120C8700846FDF77CFA192098490870B1
:102C800000204870032088700120C8700846FDF7B6
:102C900070FA1C209249087000204870887001204A
:102CA000C8700846FDF765FA10BD00B587B04FF44F
:102CB000E13003900020ADF81000ADF81200ADF83F
:102CC0001400ADF818000C20ADF8160003A98548D3
:102CD000FFF743FC0020ADF80400ADF806004FF408
:102CE0000070ADF808000020ADF80A0001A97D4889
:102CF000FFF7A8FC012240F225517A48FFF7C5FCF6
:102D000040217848FFF79DFD01217648FFF7B1FC8F
:102D100007B000BD70B54FF4E166741065107248DD
:102D2000FEF7CAFC40F60F607049888000200880DA
:102D3000C880488008726C48FEF792FD70206C498C
:102D4000088001204880042088800846C680022030
:102D5000088108204881400188810020C88162489C
:102D6000FEF7BBFD6248C48001465F48FEF7F7FDF1
:102D70005F48C58001465C48FEF73EFE4FF40060A8
:102D80005C49088040104880801088807520C88089
:102D90004FF48050088140004881400088815248AB
:102DA000FFF77AF801215048FFF77CFB012211461A
:102DB0004D48FFF7CCF801214B48FFF7ADF8012152
:102DC0004948FFF7B5F82007FEF776FC48F69F4024
:102DD0004649888040F2CF7008800020C880488033
:102DE0002007FEF73DFD01218807FFF75BFB01226D
:102DF00011469007FFF7ABF801218807FFF78CF821
:102E000070BD70B504460D46E1B23648FFF79EFC32
:102E100000BF40213348FFF707FD0128F9D12046C4
:102E200070BD10B5FFF748FEFFF791FEFFF73DFFBD
:102E300010BD05E0082100BF0A00A1F10101FBD18E
:102E40000200A0F10100F5D1704710B5044603E07F
:102E500040F24C40FFF7EDFF2000A4F10104F7D150
:102E600010BD10B54FF480711A48FEF7B2F94FF457
:102E700080611848FEF7ADF94FF480511548FEF710
:102E8000A8F910BD2DE9F04F87B0FFF7EAFF4FF426
:102E900080511048FEF79FF940F60550FFF7C9FF33
:102EA0001548008800F041FD039000F043FD064600
:102EB0000022124B00F0CAFC80464FF06632104BE5
:102EC00020E00000480000204400002000080140ED
:102ED000000C01400018014000100140500000208B
:102EE0004900002000380140002C0140680000200B
:102EF0007200002082000020600000200000B0402E
:102F000066660A4000F030FC044600F026FD06909C
:102F10004FF48051F948FEF75CF9012005900698BE
:102F200004906420FFF785FF4FF48071F348FEF7AB
:102F300052F940F60550FFF77CFFF148008800F099
:102F4000F4FC039000F0F6FC80460022ED4B00F00C
:102F50007DFC04464FF06632EB4B00F005FC064664
:102F600000F0FBFC83464FF48071E448FEF731F932
:102F70005846049900F00EFD03D202200590CDF8CA
:102F800010B06420FFF755FF4FF48061DB48FEF777
:102F900022F940F60550FFF74CFFD948008800F0B1
:102FA000C4FC019000F0C6FC04460022D54B00F0A2
:102FB0004DFC4FF06632D44BCDE9020100F0D4FB5A
:102FC0000646D24AD24B00F0CFFB804600F0C5FC4B
:102FD00082464FF48061C948FEF7FBF850460499D9
:102FE00000F0D8FC03D203200590CDF810A0642097
:102FF000FFF71FFF059807B0BDE8F08F2DE9F041FE
:10300000002400250026A04616E0FFF73BFF0746F8
:10301000012F04D0022F04D0032F06D103E0641C3B
:1030200007E06D1C05E0761C03E0BAA000F09AFDF5
:1030300000BF00BF08F10108B8F10A0FE5DB334615
:103040002A462146B8A000F08DFD002C05DD032D99
:1030500003DD16B90420BDE8F081002C05DD002D4C
:1030600003DD002E01DD0520F5E70020F3E770B554
:1030700004460D462021A148FEF791F82060082162
:103080009E48FEF78CF8286070BD7CB5044600258C
:1030900031E0694601A8FFF7EAFF019808B10098FE
:1030A00000B97CBD1021A748FEF793F8A64909682E
:1030B00001EB810140F26C7202EB4100FFF7B9FEB7
:1030C0001021A048FEF787F808219E48FEF781F8F6
:1030D0009D49096801EB810140F26C72A2EB41004D
:1030E000FFF7A7FE08219748FEF775F844F6206021
:1030F000FFF79FFE6D1C04EBC40000EB0410B5EB62
:10310000400FC6DB00BFCCE77CB50446002531E0AC
:10311000694601A8FFF7ABFF019808B1009800B914
:103120007CBD10218748FEF754F88749096801EBF8
:10313000810140F26C72A2EB4100FFF77AFE102190
:103140008048FEF748F808217E48FEF742F87E499D
:10315000096801EB810140F26C7202EB4100FFF75C
:1031600068FE08217748FEF736F844F62060FFF73E
:1031700060FE6D1CA542CBDB00BFD1E710B510216E
:103180007048FEF726F840F26C70FFF752FE1021EF
:103190006C48FEF720F808216A48FEF71AF840F25A
:1031A0006C70FFF746FE08216648FEF714F844F6F7
:1031B0002060FFF73EFE10BD70B50546062D29D2F2
:1031C000DFE805F04FEA2903C475002420E0082158
:1031D0005C48FDF7FEFF4FF4E160FFF72AFE08218F
:1031E0005848FDF7F8FF44F62060FFF722FE102153
:1031F0005448FDF7EEFF4FF4E160FFF71AFE10218F
:103200005048FDF7E8FF44F62060FFF712FE641C0B
:10321000142CDCDBC0E0002420E008214948FDF745
:10322000D8FF4FF4FA60FFF704FE08214548FDF788
:10323000D2FF44F62060FFF7FCFD10214148FDF766
:10324000C8FF40F63400FFF7F4FD10213D48FDF7BC
:10325000C2FF44F62060FFF7ECFD641C122CDCDB9F
:103260009AE0002420E008213648FDF7B2FF4FF431
:10327000E160FFF7DEFD08213248FDF7ACFF44F6C0
:103280002060FFF7D6FD10212E48FDF7A2FF4FF476
:10329000E160FFF7CEFD10212A48FDF79CFF44F6C0
:1032A0002060FFF7C6FD641C242CDCDB74E00024E6
:1032B00020E008212348FDF78CFF4FF4E160FFF781
:1032C000B8FD08211F48FDF786FF44F62060FFF790
:1032D000B0FD10211B48FDF77CFF4FF4E160FFF7C4
:1032E000A8FD10211748FDF776FF44F62060FFF790
:1032F000A0FD641C032CDCDB4EE000000018014044
:10330000600000200000B04066660A403BDF4F8D41
:10331000976EF03F0D0A2077726F6E6720726574AA
:1033200075726E200D0A0000626C75653D25642C77
:103330007265643D25642C677265656E3D25642069
:10334000000000000010014028000020002420E0C0
:1033500008219C48FDF73DFF4FF4FA60FFF769FD37
:1033600008219848FDF737FF44F62060FFF761FD1C
:1033700010219448FDF72DFF40F63400FFF759FD6A
:1033800010219048FDF727FF44F62060FFF751FD1C
:10339000641C032CDCDB00BF00BF70BD70B50546AC
:1033A0000C4625B1012D10D0022D2AD11BE0FFF7CC
:1033B00058FD2046FFF749FD4FF480718248FDF724
:1033C0000AFF2046FFF741FD1BE0FFF74AFD2046BC
:1033D000FFF73BFD4FF480617B48FDF7FCFE204684
:1033E000FFF733FD0DE0FFF73CFD2046FFF72DFD15
:1033F0004FF480517448FDF7EEFE2046FFF725FD9F
:1034000000BF00BF70BD1CB50446CCE00120019098
:103410000090694601A8FFF72AFE019808B10098BC
:10342000C0B9012C15D16949096881F00200FFF784
:10343000C3FE0120FFF729FE6449096881F00300FB
:10344000FFF7BAFE6149096881F00400FFF7B4FE96
:1034500000BF00BF10215B48FDF7BBFE5C49096857
:1034600001EB810140F26C7202EB4100FFF7E1FCDD
:1034700010215448FDF7AFFE08215248FDF7A9FE80
:103480005349096801EB810140F26C72A2EB4100E3
:10349000FFF7CFFC08214B48FDF79DFE44F6206066
:1034A000FFF7C7FC4B480068401C4A4908600846C3
:1034B00000680A2190FBF1F201FB12004549086007
:1034C0000846006800286DD1FFF798FD4249086062
:1034D000424800680968884203D0FFF78FFD3E49E3
:1034E00008603E48006804280CD03B480068042867
:1034F00008D13648006828B90020FFF75DFE01209A
:10350000324908603548006805283FD032480068D5
:1035100005283BD100203249086011E02B49096899
:1035200081F00500FFF748FE0220FFF7EDFDFFF7F1
:1035300065FD294908602A480068401C2849086040
:1035400025480068052803D1254800680528E5DBE3
:1035500000202349086011E01C49096881F004003B
:10356000FFF72AFE0220FFF7CFFDFFF747FD1A49BC
:1035700008601B480068401C19490860164800682C
:10358000052803D1164800680528E5DB13480268C2
:103590001148016813A000F0E5FA0F4800680F49D0
:1035A000086001E000BF31E700BF1CBDFFF739FC38
:1035B00000F0CCF810A000F0D5FA02E00120FFF7EF
:1035C00022FFFBE7001001400018014040000020EE
:1035D000280000205C000020340000203000002083
:1035E0003C0000206375725F636F6C6F723A202538
:1035F000642D3E25640D0A000D0A202D2D2D2DE889
:10360000BF99E698AFE4B880E4B8AA414443E5AE78
:103610009EE9AA8C28444D41E4BCA0E8BE93292D24
:10362000E9A29CE889B2E8AF86E588AB2D2D2D0D87
:103630000A000000704700BFFEE700BFFEE700BFC2
:10364000FEE700BFFEE77047704770477047000015
:1036500008B501210846FDF7BAFF01214FF40470B7
:10366000FDF7C2FF0220ADF8000000208DF8030036
:1036700069463948FDF702FD08BD00B591B03748ED
:10368000FDF708F836480690364807900020089065
:103690000120099000200A900B904FF480700C904C
:1036A00080000D9020200E9000020F9000201090BE
:1036B00006A92A48FDF790F801212848FDF7B7F838
:1036C000002001908DF8080001208DF809004FF4CA
:1036D000602003900020049001208DF8140001A9BF
:1036E0001F484C38FCF7D5FD4FF44040FDF7E3FE92
:1036F000052301220B211A484C38FCF762FE0121F8
:1037000017484C38FCF7FCFD012115484C38FCF7F4
:10371000ECFD13484C38FCF70AFE00BF10484C384B
:10372000FCF70AFE0028F9D10D484C38FCF70EFED4
:1037300000BF0B484C38FCF70EFE0028F9D10121E0
:1037400007484C38FCF711FE11B000BD10B5FFF76B
:103750007FFFFFF792FF10BD0010014008000240FC
:103760004C240140600000202DE9FE4F81EA030453
:1037700004F0004421F0004100944FF0000B23F0CE
:10378000004350EA010402D052EA030404D10020AD
:10379000014603B0BDE8F08FC3F30A54C1F30A55E4
:1037A0002C44A4F2F3340194A0FB0254C1F313019E
:1037B00041F48011C3F3130343F4801301FB02446B
:1037C00000FB034E840A970A44EA815447EA835770
:1037D000A4FB076802958D0A05FB07854FEA932C29
:1037E00004FB0C542705029D4FEA065847EA16379A
:1037F000B5EB08056EEB070C870E920E47EA8117B2
:1038000042EA8312A7FB0201B6EB0B0164EB000452
:103810002B0D43EA0C335E1844EB1C50DA4651463C
:10382000E7FB0201C5F313044FEA0B3343EA1453D9
:103830004FEA0432019C43EA0603A4F10C0402940B
:10384000009CCDE900B400F008F9A2E72DE9F04DA5
:1038500081EA030404F0004B21F0004514464FF0C8
:10386000000A23F0004150EA050220D054EA010288
:103870001DD0C5F30A570246C5F31303C1F3130065
:10388000C1F30A5640F4801543F48013A7EB0608F1
:10389000101BD64608F2FD3873EB050002D308F181
:1038A000010801E092185B41B8F1000F03DA002033
:1038B0000146BDE8F08D00204FF480110646844695
:1038C0000EE0171B73EB050705D3121B63EB050313
:1038D00006434CEA010C49084FEA300092185B415C
:1038E00050EA0107EDD152EA030012D082EA040047
:1038F00083EA0501084303D100224FF0004308E0AA
:10390000101BAB4102D20122002302E06FF0010242
:1039100053101AEB06004CEB085110EB0A0041EB78
:103920000B01BDE8F04D00F08BB896230022114644
:1039300000F059B800F0004230F000400AD0C10D4C
:1039400001F56071C0F3160042EA0151C208400758
:103950001143704700200146704701F0004330B426
:1039600021F0004150EA010206D00A0DA2F5607272
:10397000C1F31301002A02DC30BC00207047440F61
:1039800044EAC104C100E01830BC00EBC25000F0B2
:1039900021B80000002801DBC0F10040002901DB54
:1039A000C1F100418842704730B50B460146002006
:1039B0002022012409E021FA02F59D4205D303FAF1
:1039C00002F5491B04FA02F52844151EA2F1010272
:1039D000F1DC30BD0029A8BF7047401C490008BF7A
:1039E00020F00100704710B4B0FA80FC00FA0CF02F
:1039F00050EA010404BF10BC704749B1CCF1200467
:103A000021FA04F411FA0CF118BF012121430843F3
:103A1000A3EB0C01CB1D0106000A002BBEBF00204A
:103A200010BC704700EBC35010440029A4BF10BC69
:103A30007047401C490008BF20F0010010BC7047CF
:103A400010B5002B08DA401C41F1000192185B41CF
:103A50001A4301D120F0010010BD2DE9F04D92462E
:103A60009B4611B1B1FA81F202E0B0FA80F2203245
:103A7000904600F057F804460F4640EA0A0041EA33
:103A80000B0153465A46084303D120463946BDE848
:103A9000F08D114653EA010015D0C8F1400250469E
:103AA00000F04FF805460E4650465946424600F093
:103AB00039F8084301D0012000E00020054346EA20
:103AC000E0762C4337430A984FEA4453A0EB0800B2
:103AD0004FEAD4240A304FF0000244EA47544FEA38
:103AE000D72502D500200146D1E70105101969410B
:103AF000DDE9084500196941BDE8F04DA0E7000087
:103B0000064C074D06E0E06840F0010394E807002A
:103B100098471034AC42F6D3FCF70EFBF83C000893
:103B2000183D0008202A04DB203A00FA02F10020A8
:103B300070479140C2F1200320FA03F319439040EB
:103B40007047202A04DB203A21FA02F00021704756
:103B500021FA02F3D040C2F12002914008431946F5
:103B6000704700000FB4054B10B503A9044A029832
:103B700000F018F810BC5DF814FB0000032E0008DC
:103B80006400002002E008C8121F08C1002AFAD110
:103B900070477047002001E001C1121F002AFBD1CD
:103BA000704700002DE9FF4F89B09B460446002571
:103BB00097E0252833D10027641C4E49B8460122DE
:103BC0002378203B02FA03F0084202D00743641C2A
:103BD000F6E720782E2819D114F8010F47F00407D2
:103BE0002A280ED06FF02F022078A0F13001092989
:103BF0000CD808EB880102EB410100EB0108641CC2
:103C0000F2E70A98641C50F8048B0A902078002888
:103C10006BD0642808D0692806D0752820D05A4671
:103C20000B9990476D1C5BE00A994FF00A0901C996
:103C30000A91002804DAC0F100004FF02D0102E0E3
:103C4000390504D52B218DF82010012103E0F90757
:103C500004D02021F7E78A4608AE0EE00021FAE7FB
:103C60000A994FF00A0901C90A91F7E74946FFF797
:103C70009BFE01F1300106F8011D0028F6D1ADEBE5
:103C8000060000F12009780701D44FF00108C8456B
:103C900002DDA8EB090000E000208046002706E0D6
:103CA00008A85A46C05D0B9990476D1C7F1C57456C
:103CB000F6DB04E030205A460B9990476D1CB8F1B2
:103CC0000001A8F10108F5DC05E016F8010B5A46E1
:103CD0000B9990476D1CB9F10001A9F10109F4DCC1
:103CE000641C207800287FF464AF0DB02846BDE83E
:103CF000F08F000009280100183D00080000002096
:103D000068000000843B0008803D00086800002037
:103D100028040000943B0008000000000102030496
:103D200001020304060708090204060800A24A0467
:103D3000000000000000000001020304060708095B
:103D40000A00000000000000000000000000000069
:103D50000000000000000000000000000000000063
:103D60000000000000000000000000000000000053
:103D70000000000000000000000000000000000043
:0400000508000131BD
:00000001FF
