:020000040800F2
:1000000068040020D1060008ED040008EF04000891
:10001000F3040008F7040008FB04000800000000D7
:10002000000000000000000000000000FF040008C5
:100030000105000800000000030500080505000890
:10004000EB060008EB060008EB060008EB060008CC
:10005000EB060008EB060008EB060008EB060008BC
:10006000EB060008EB060008EB060008EB060008AC
:10007000EB060008EB060008EB060008EB0600089C
:10008000EB060008EB060008EB060008EB0600088C
:10009000EB060008EB060008EB060008EB0600087C
:1000A000EB060008EB060008EB060008EB0600086C
:1000B000EB060008EB060008EB060008EB0600085C
:1000C000EB060008EB060008EB060008EB0600084C
:1000D000EB060008EB060008EB060008EB0600083C
:1000E000EB060008EB060008EB060008EB0600082C
:1000F000EB060008EB060008EB060008EB0600081C
:10010000EB060008EB060008EB060008EB0600080B
:10011000EB060008EB060008EB060008EB060008FB
:10012000EB060008EB060008EB060008EB060008EB
:10013000DFF80CD002F010FB00480047A7040008CD
:100140006804002010B501F059F84FF4803001F038
:1001500075F801F0B2F8D749087008460078012810
:1001600026D1102000F0D6FB022000F0BFFB0020BB
:1001700001F0E5F84FF4806001F0EAF8002001F0AA
:10018000F0F84FF4E0114FF4803001F0BBF801209B
:1001900001F0C4F800BF392001F073F80028FAD04C
:1001A000022001F0BEF800BF01F0C4F80828FBD11E
:1001B00001217D2001F08AF90121880301F086F9EF
:1001C0000121C80201F082F90121084601F08BF9F2
:1001D0000121480201F07AF910BD10B54FF400700A
:1001E000B54908801820C87003208870B34800F013
:1001F000B9FE4FF48060B04908800420C870AF4851
:1002000000F0B0FE10BD10B500214FF0006000F00E
:10021000A9FA4FF4E06000F06DFA0921022000F025
:10022000B5FF4FF40070A6490860002008710C204B
:10023000487101208871084600F0D8FA1720A149BA
:1002400008700020487088700120C870084600F0CF
:1002500056FA0421084600F099FF102098490860DA
:10026000002008710C20487101208871084600F0B8
:10027000BDFA0A2093490870002048708870012058
:10028000C870084600F03BFA0521042000F07EFF0C
:1002900020208B490860002008710C204871012043
:1002A0008871084600F0A2FA1720864908700020DD
:1002B000487088700120C870084600F020FA1920A4
:1002C0008049087000204870032088700120C870A1
:1002D000084600F014FA1C207A4908700020487083
:1002E00088700120C870084600F009FA10BD00B5FA
:1002F00087B04FF4E13003900020ADF81000ADF866
:100300001200ADF81400ADF818000C20ADF816007E
:1003100003A96D4802F05DF80020ADF80400ADF8C7
:1003200006004FF40070ADF808000020ADF80A0098
:1003300001A9654802F0C2F8012240F22551624845
:1003400002F0DFF84021604802F0BAF901215E486E
:1003500002F0CBF807B000BD70B54FF4E166741041
:1003600065105A4801F01AF940F60F605849888024
:1003700000200880C88048800872544801F0E2F9E3
:100380007020544908800120488004208880084655
:10039000C680022008810820488140018881002011
:1003A000C8814A4801F00BFA4A48C48001464748D0
:1003B00001F047FA4748C5800146444801F08AFAEF
:1003C0004FF40060444908804010488080108880C5
:1003D0007520C8804FF4805008814000488140005B
:1003E00088813A4801F0A9FC0121384801F096FFC4
:1003F00001221146354801F0FAFC0121334801F091
:10040000D1FC0121314801F0D9FC200701F0C6F8E8
:1004100048F69F402E49888040F2CF700880002027
:10042000C8804880200701F08DF90121880701F07C
:1004300075FF01221146900701F0D9FC01218807C0
:1004400001F0B0FC70BD70B504460D46E1B21E4827
:1004500002F0BBF800BF40211B4802F024F901283C
:10046000F9D1204670BD10B5FFF76CFEFFF7B5FE61
:10047000FFF73DFF10BD05E0082100BF0A00A1F114
:100480000101FBD10200A0F10100F5D1704710B5C8
:10049000044603E040F24C40FFF7EDFF2000A4F1DA
:1004A0000104F7D110BDFFF7DEFF0CA002F066F9E2
:1004B00000BFFEE70400002000000020000801400B
:1004C0000C0000200500002000380140002C0140F5
:1004D000400000204A0000205A00002048656C6C53
:1004E0006F20526F626F74210D0A0000704700BFC9
:1004F000FEE700BFFEE700BFFEE700BFFEE7704774
:10050000704770477047000000210020674A12685A
:1005100042F48032654B1A6000BF644A126802F4EC
:100520000030491C10B9B1F5A06FF6D15F4A1268CE
:1005300012F4003F01D0012000E00020012842D148
:100540005B4A126842F01002594B1A601A46126850
:1005500022F003021A601A46126842F002021A6080
:10056000524A5268514B5A601A4652685A601A46AB
:10057000526842F480625A601A46526822F47C1231
:100580005A601A46526842F4E8125A601A461268D3
:1005900042F080721A6000BF444A126812F0007F75
:1005A000FAD0424A526822F00302404B5A601A467F
:1005B000526842F002025A6000BF3C4A526802F0A0
:1005C0000C02082AF9D1704710B5FFF79DFF10BD46
:1005D00010B53648006840F001003449086008460C
:1005E000406834490840314948600846006832494B
:1005F00008402E4908600846006820F48020086002
:100600000846406820F4FE0048604FF41F008860F0
:10061000FFF7DAFF4FF000602849086010BD10B501
:10062000002100200022214B5B6803F00C0121B166
:10063000042906D0082928D107E0214B214C23604A
:1006400027E01F4B1F4C236023E0184B5B6803F42B
:100650007010164B5B6803F48032022303EB90406A
:1006600022B9194B4343174C23600DE00F4B5B68D5
:1006700013F4003F04D0144B4343124C236003E0B7
:100680000F4B43430F4C236003E00D4B0D4C236095
:1006900000BF00BF054B5B68C3F303130B4CE15C69
:1006A000084B1B68CB40074C236010BD0010024074
:1006B000002002400000FFF8FFFFF6FE08ED00E01A
:1006C00000127A001400002000093D0018000020EC
:1006D0000648804706480047FEE7FEE7FEE7FEE7DC
:1006E000FEE7FEE7FEE7FEE7FEE7FEE7D1050008CE
:1006F0003101000831490143314A1160704770B53A
:10070000002100230F22C4780CB32D4C246804F47C
:10071000E064C4F5E064210AC1F10403CA404478EE
:1007200004FA03F18478144021430901254C06782A
:10073000A155047804F01F050124AC4005786D1123
:100740004FF0E02606EB8505C5F8004109E0047886
:1007500004F01F050124AC401B4D0678761145F8C6
:10076000264070BD194A0A400243154B1B1F1A60F0
:10077000704739B1124A121D12680243104B1B1DFB
:100780001A6006E00E4A121D126882430C4B1B1DB4
:100790001A607047042808D14FF0E021096941F040
:1007A00004014FF0E022116107E04FF0E0210969F8
:1007B00021F004014FF0E022116170470000FA05BA
:1007C0000CED00E000E400E080E100E080FFFF1FAE
:1007D000002044490860091D0860091D0860091DC2
:1007E000086041483F4914310860704700213D4985
:1007F0008279002A3AD00A46126803689A430B4667
:100800001A600A1D126803689A430B1D1A60027968
:1008100011440A6803681A430A60324A08321268AF
:1008200003689A432F4B08331A601A1D1268036835
:100830009A432C4B0C331A604279102A0ED11A1F9E
:10084000126803681A43274B08331A601A1D12688E
:1008500003681A43234B0C331A600DE02149427997
:1008600011440A6803681A430A6005E002791144DA
:100870000A6803689A430A607047002101600171A9
:100880000C214171002181717047164910310968AE
:100890000143144A10321160704701460020114A8A
:1008A000143212680A4201D0012000E00020704793
:1008B0000C49143108607047014600200022094BA2
:1008C0001B6803EA0102074B14331B680B4202D07A
:1008D0000AB1012000E0002070470249143108608D
:1008E0007047000000040140FFFF0F000146002098
:1008F000FE4A106800F03800084310607047FB495A
:10090000096821F00801F94A11601146096801439C
:1009100011607047F549096821F01001F34A116030
:1009200011460968014311607047F148EF4948607A
:10093000F04848607047EE48EC494860ED48486030
:100940007047EA48006940F08000E8490861704754
:10095000E648006940F08000E449086170470420DF
:10096000E249C96801F00101012901D101200EE02D
:10097000DE49C96811F0040F01D0022007E0DB490D
:10098000C96811F0100F01D0032000E00420704767
:1009900000B502460423FFF7E2FF034603E0FFF73A
:1009A000DEFF0346521E012B01D1002AF7D102B906
:1009B0000523184600BD30B5044604254FF4302009
:1009C000FFF7E6FF0546042D17D1C848006940F03F
:1009D0000200C649086108464461006940F04000D1
:1009E00008614FF43020FFF7D3FF0546BF48006988
:1009F00041F6FD710840BD490861284630BD10B57B
:100A000004244FF43020FFF7C3FF0446042C16D112
:100A1000B648006940F00400B4490861084600691E
:100A200040F0400008614FF43020FFF7B1FF04466A
:100A3000AE48006941F6FB710840AC4908612046A8
:100A400010BD00B502460423FFF789FF034603E00B
:100A5000FFF785FF0346521E012B01D1002AF7D173
:100A600002B90523184600BD10B504244FF4302008
:100A7000FFF7E7FF0446042C16D19C48006940F0BC
:100A800004009A4908610846006940F04000086186
:100A90004FF43020FFF7D5FF04469448006941F633
:100AA000FB71084091490861204610BD00208F4924
:100AB000C96911F0020F01D0012000E00020704749
:100AC00030B5A5250424FFF7F1FF00B100254FF450
:100AD0003020FFF75DFF0446042C3AD18448834957
:100AE0008860844888600846006940F020000861FA
:100AF0000846006940F0400008614FF43020FFF7DD
:100B000047FF0446042C1BD17848006941F6DF7189
:100B10000840764908610846006940F01000086105
:100B200075480580E002FFF733FF0446052C10D01E
:100B30006E48006941F6EF7108406C49086108E0B1
:100B4000052C06D06948006941F6EF7108406749F5
:100B50000861204630BDF0B504460D460426002746
:100B6000F002FFF715FF0646042E22D15F48006908
:100B700040F001005D4908612580F002FFF708FFA1
:100B80000646042E0ED1A71C280C3880F002FFF771
:100B9000FFFE06465548006941F6FE71084053497C
:100BA000086106E05148006941F6FE7108404F496E
:100BB00008613046F0BD70B504460D460426F002CB
:100BC000FFF7E6FE0646042E11D14848006940F0C2
:100BD0000100464908612580F002FFF7D9FE06466C
:100BE0004248006941F6FE710840404908613046BC
:100BF00070BD70B505460E460424E002FFF7C8FE3E
:100C00000446042C17D13A4838498860394888602E
:100C10000846006940F0100008612E80E002FFF7EE
:100C2000B7FE0446052C06D03048006941F6EF7146
:100C300008402E490861204670BD2DE9F043044666
:100C40004FF6FF763746B046B1460425E443E6B298
:100C5000C4F30727C4F307484FEA1469E802FFF713
:100C600097FE0546042D40D121482049886021483F
:100C700088600846006940F010000861FF2E06D029
:100C80001D4808300680E802FFF782FE0546042D65
:100C900008D1FF2F06D018480A300780E802FFF776
:100CA00077FE0546042D0AD1B8F1FF0F07D0124890
:100CB0000C30A0F80080E802FFF76AFE0546042D1C
:100CC0000AD1B9F1FF0F07D00B480E30A0F8009001
:100CD000E802FFF75DFE0546052D06D003480069D2
:100CE00041F6EF7108400149086107E00020024029
:100CF00023016745AB89EFCD00F8FF1F2846BDE80B
:100D0000F08330B5054604244FF43020FFF740FE51
:100D10000446042C41D15F485F4988605F48886081
:100D20000846006940F0200008610846006940F06C
:100D3000400008614FF43020FFF72AFE0446042CDF
:100D400022D15548006941F6DF71084052490861D7
:100D50000846006940F0100008611DB100205049AC
:100D6000088002E0A5204E4908804FF43020FFF7AC
:100D70000FFE0446052C10D04748006941F6EF717C
:100D800008404549086108E0052C06D04248006942
:100D900041F6DF71084040490861204630BDF0B59A
:100DA00005460E46174604243A483B4988603B48AE
:100DB0008860E002FFF7ECFD0446042C19D13648A8
:100DC000006940F010003449086147F0F8003043F2
:100DD00028433349891C0880E002FFF7D9FD044607
:100DE000052C06D02C48006941F6EF7108402A49CD
:100DF00008612046F0BD2848C06980087047264831
:100E0000006A704700202449096811F0200F01D0C2
:100E1000012000E00020704729B11F4A12690243F7
:100E20001D4B1A6104E01C4A126982431A4B1A6175
:100E3000704701460020012908D1174AD26912F0F3
:100E4000010F01D0012008E0002006E0124AD2681C
:100E50000A4201D0012000E0002070470E49C8601E
:100E6000704704200C49C96801F00101012901D132
:100E700001200EE00849C96811F0040F01D00220DA
:100E800007E00549C96811F0100F01D0032000E008
:100E9000042070472301674500200240AB89EFCD55
:100EA00000F8FF1F10B50446CA48844208D101214A
:100EB000042000F025FB0021042000F021FB46E087
:100EC000C548844208D10121082000F019FB002107
:100ED000082000F015FB3AE0C048844208D1012107
:100EE000102000F00DFB0021102000F009FB2EE087
:100EF000BB48844208D10121202000F001FB0021E1
:100F0000202000F0FDFA22E0B648844208D10121F9
:100F1000402000F0F5FA0021402000F0F1FA16E040
:100F2000B148844208D10121802000F0E9FA002173
:100F3000802000F0E5FA0AE0AC48844207D10121A4
:100F4000801500F0DDFA0021A01500F0D9FA10BDDF
:100F500010B50121084600F0D3FA0021012000F06D
:100F6000CFFA10BD2DE9F0410246002500260020F1
:100F700000230024002791F803C00CF00F0591F81E
:100F800003C01CF0100F03D091F802C04CEA050515
:100F9000B1F800C01CF0FF0F31D0146800202BE026
:100FA0004FF0010C0CFA00F3B1F800C00CEA030694
:100FB0009E4220D183004FF00F0C0CFA03F7BC4384
:100FC00005FA03FC4CEA040491F803C0BCF1280FB5
:100FD00006D14FF0010C0CFA00FCC2F814C00AE074
:100FE00091F803C0BCF1480F05D14FF0010C0CFA89
:100FF00000FCC2F810C0401C0828D1D31460B1F81E
:1010000000C0BCF1FF0F34DD546800202EE000F179
:10101000080C4FF0010808FA0CF3B1F800C00CEA14
:1010200003069E4221D183004FF00F0C0CFA03F708
:10103000BC4305FA03FC4CEA040491F803C0BCF17C
:10104000280F05D100F1080C08FA0CF8C2F814803A
:1010500091F803C0BCF1480F07D100F1080C4FF024
:10106000010808FA0CF8C2F81080401C0828CED3FA
:101070005460BDE8F0814FF6FF710180022181705C
:101080000421C17070470246002093680B4201D0D2
:10109000012000E0002070470146886880B2704758
:1010A00002460020D3680B4201D0012000E000205E
:1010B00070470146C86880B270470161704741615E
:1010C00070470AB1016100E041617047C16070473B
:1010D0004FF480320A438261816182618269826950
:1010E000704702460020424B18684FF68073184044
:1010F00040EA021008433E4B186070473D49C86102
:101100007047F0B50A46002300240021002500F0B6
:101110000046B6F1004F02D1354EF16901E0344E80
:101120007168C0F3034583B200F44016B6F5401F62
:1011300008D121F070612E4E766826F070662C4F33
:101140007E6012E000F48016B6F5801F06D10326FB
:1011500006FA05F4A14341F0706106E0460D360140
:1011600003FA06F6B14341F0706122B1460D360133
:1011700003FA06F6314300F00046B6F1004F02D103
:101180001B4EF16101E01A4E7160F0BD30B50022D6
:101190008B071C0F0F2303FA04F2154B08338C1036
:1011A00053F824309343124C08348D1044F8253002
:1011B00023468C1053F824308C07240F00FA04F4D3
:1011C00023430B4C08348D1044F8253030BD0A49B8
:1011D0000860704700080140000C01400010014009
:1011E0000014014000180140001C01400020014093
:1011F0000000014000002042DC002042DC48006882
:1012000040F00100DA49086008464068D9490840C2
:10121000D749486008460068D7490840D449086063
:101220000846006820F4802008600846406820F4E2
:10123000FE0048604FF41F0088607047CC49096881
:1012400021F48031CA4A11601146096821F48021D5
:101250001160B0F5803F03D0B0F5802F0ED106E0CD
:10126000C349096841F48031C14A116007E0C049AF
:10127000096841F4A021BE4A116000E000BF00BF30
:10128000704710B501460022002300204A11012AB0
:1012900002D1B74C236806E0022A02D1B44C236A7B
:1012A00001E0B34C636A01F01F02012494401C4228
:1012B00001D0012000E0002010BD70B50024002501
:1012C000002600BF3120FFF7DCFF0646641CB4F5A2
:1012D000A06F01D0002EF5D03120FFF7D2FF08B16A
:1012E000012500E00025284670BD01460020A04AE7
:1012F000106820F0F80040EAC100106070479F4974
:101300000860704702460020994B586820F47C1012
:1013100042EA01031843964B5860704797490866A4
:10132000704701460020924A506820F003000843AD
:10133000506070478E48406800F00C0070470146CE
:1013400000208B4A506820F0F0000843506070473E
:1013500001460020864A506820F4E060084350604F
:10136000704701460020824A506820F4605040EAED
:10137000C1005060704729B17D4A527A02437C4BCC
:101380005A7206E07A4A527AC343DBB21A40784B6B
:101390005A7270477A490860704701460020744AC3
:1013A000506820F440400843506070470021754A5F
:1013B00011706F4A82F82010012802D0042808D149
:1013C00003E001216F4A117004E005216D4A11709C
:1013D00000E000BF00BF70476B4908607047644978
:1013E000096A0143624A11627047674944390860DB
:1013F000704730B500210022002400235C4D6D6849
:1014000005F00C0121B1042905D0082923D105E0FC
:101410005E4D056022E05D4D05601FE0544D6D6836
:1014200005F47012524D6D6805F48034022505EB09
:1014300092421CB9564D554305600BE04C4D6D680A
:1014400015F4003F03D0524D5543056002E04F4D67
:101450005543056002E04D4D056000BF00BF444D9F
:101460006D6805F0F00109094A4D6B5C0568DD40C7
:1014700045603F4D6D6805F4E061090A454D6B5CC0
:101480004568DD4085603A4D6D6805F46051C90AD4
:10149000404D6B5C4568DD40C560354D6D6805F4B9
:1014A0004041890B3C4D6B5CC568B5FBF3F50561AC
:1014B00030BD29B12E4A526902432D4B5A6104E0D6
:1014C0002B4A526982432A4B5A61704729B1284AF4
:1014D00092690243264B9A6104E0254A926982434D
:1014E000234B9A61704729B1214AD2690243204BAC
:1014F000DA6104E01E4AD26982431D4BDA6170470B
:1015000029B11B4AD2680243194BDA6004E0184A39
:10151000D2688243164BDA60704729B1144A1269C7
:101520000243134B1A6104E0114A12698243104BC3
:101530001A61704714494039086070470F49C86400
:1015400070470B49C87170470948406A40F0807085
:1015500007494862704701460020054A92680A42DE
:1015600001D0012000E000207047014988727047D7
:10157000001002400000FFF8FFFFF6FE00004242AC
:10158000D8004242201002408004424200127A00F9
:1015900000093D00280000203800002010B5044656
:1015A000FE48844208D10121C014FFF7A9FF0021A1
:1015B000E014FFF7A5FFC4E0B4F1804F08D101218A
:1015C0000846FFF7AAFF00210120FFF7A6FFB8E0B9
:1015D000F348844208D101210220FFF79EFF002139
:1015E0000220FFF79AFFACE0EE48844208D10121C7
:1015F0000420FFF792FF00210420FFF78EFFA0E0F8
:10160000E948844208D101210820FFF786FF002124
:101610000820FFF782FF94E0E448844208D10121CA
:101620001020FFF77AFF00211020FFF776FF88E0F7
:10163000DF48844208D101212020FFF76EFF0021FE
:101640002020FFF76AFF7CE0DA48844208D10121BC
:101650004014FFF755FF00216014FFF751FF70E0C1
:10166000D548844209D10121C804FFF749FF002170
:101670004FF40020FFF744FF63E0D048844209D1D3
:1016800001210805FFF73CFF00214FF48010FFF710
:1016900037FF56E0CA48844209D101214805FFF7C7
:1016A0002FFF00214FF40010FFF72AFF49E0C54843
:1016B000844208D101214020FFF72FFF0021402064
:1016C000FFF72BFF3DE0C048844208D10121802074
:1016D000FFF723FF00218020FFF71FFF31E0BB4809
:1016E000844208D101218015FFF717FF0021A015C2
:1016F000FFF713FF25E0B648844209D10121080411
:10170000FFF7FEFE00214FF48030FFF7F9FE18E0EE
:10171000B048844209D101214804FFF7F1FE0021BD
:101720004FF40030FFF7ECFE0BE0AB48844208D1E9
:1017300001218804FFF7E4FE00214FF48020FFF729
:10174000DFFE10BD00220288944B98420ED0994BC8
:1017500098420BD0B0F1804F08D0914B984205D001
:10176000904B984202D0904B984204D14FF68F7321
:101770001A404B881A438D4B984207D08C4B9842A5
:1017800004D04FF6FF431A40CB881A4302808B885F
:1017900083850B880385814B98420BD0854B9842FB
:1017A00008D08B4B984205D08A4B984202D08A4B86
:1017B000984201D10B7A038601238382704770B56A
:1017C000002400220023058C4FF6FE763540058468
:1017D000028C8388048B4FF68F752C40B51E2C40ED
:1017E0000D882C43751E2A400D892A434D882A43B3
:1017F0006A4DA8420BD06F4DA84208D0744DA84244
:1018000005D0744DA84202D0734DA84213D14FF6B3
:10181000F7752A404D892A434FF6FB752A408D887B
:101820002A434FF6FF652B404FF6FF552B408D891D
:101830002B43CD892B4383800483CD888586028406
:1018400070BD70B5002400220023058C4FF6EF76A2
:1018500035400584028C8388048B48F6FF752C4044
:101860004FF6FF452C400D882D0644EA15444FF6EF
:10187000DF752A400D892D0542EA15424D882D0558
:1018800042EA1542454DA84202D04A4DA8421BD11A
:101890004FF67F752A404D892D0542EA15424FF6D5
:1018A000BF752A408D882D0542EA15424FF6FF3557
:1018B0002B404FF2FF752B408D89AD0443EA154351
:1018C000CD89AD0443EA154383800483CD88058721
:1018D000028470BD70B5002400220023058C4FF6F1
:1018E000FF6635400584028C8388848B4FF68F75A4
:1018F0002C404FF6FC752C400D882C434FF6FF55BD
:101900002A400D892D0642EA15424D882D0642EAED
:101910001542224DA84202D0264DA8421BD14FF2BB
:10192000FF752A404D892D0642EA15424FF6FF35D4
:101930002A408D882D0642EA15424EF6FF752B404F
:101940004DF6FF752B408D892D0543EA1543CD8952
:101950002D0543EA154383808483CD8885870284DF
:1019600070BD70B5002200230024058C4EF6FF7672
:1019700035400584038C8488828B48F6FF752A40A5
:101980004FF6FF452A400D882D0642EA15424DF6D6
:10199000FF752B400D892D0720E00000002C014031
:1019A0000004004000080040000C0040001000400F
:1019B0000014004000340140004C01400050014040
:1019C0000054014000180040001C0040002000406E
:1019D00000400140004401400048014043EA1543F3
:1019E0004D882D0743EA1543F84DA84202D0F84D23
:1019F000A84206D14BF6FF752C408D89AD0544EA0F
:101A0000154484808283CD88A0F84050038470BD43
:101A1000828B4FF2FF331A408283828B0B0642EA9D
:101A2000134282837047F0B50C4615460022002110
:101A30000026078C4EF6FF7C07EA0C070784828B92
:101A4000018C27073E0C40F6FF473A402F0642EA3A
:101A500017421F0742EA1742DC4FB8420ED0DC4F54
:101A6000B8420BD0B0F1804F08D0DA4FB84205D061
:101A7000D94FB84202D0D94FB84206D14DF6FF77C0
:101A8000394046F48057394305E047F6FF5739405F
:101A900044F48057394382830184F0BD828B4FF632
:101AA000F3731A408283828B0A4382837047F0B5B6
:101AB0000C461546002200210026078C4FF6FF6CCD
:101AC00007EA0C070784828B018C27063E0C4FF631
:101AD0000C773A401F0545EA17473A43BB4FB842D7
:101AE0000ED0BB4FB8420BD0B0F1804F08D0B94FE9
:101AF000B84205D0B84FB84202D0B84FB84206D16C
:101B00004FF6FF57394046F48077394305E04FF2EE
:101B1000FF57394044F48077394382830184F0BD14
:101B2000028B4FF2FF331A400283028B0B0642EA0C
:101B3000134202837047F0B50C461546002200217F
:101B40000026078C4FF6EF7C07EA0C070784028B10
:101B5000018C27053E0C40F6FF473A401F0742EA3A
:101B600017422F0642EA1742984FB8420ED0984FBC
:101B7000B8420BD0B0F1804F08D0964FB84205D094
:101B8000954FB84202D0954FB84206D14FF6DF7755
:101B9000394046F01007394305E04FF65F7739408A
:101BA00044F01007394302830184F0BD028B4FF6E5
:101BB000F3731A400283028B0A4302837047F0B525
:101BC0000C46154600220021068C4FF6FE773E405B
:101BD0000684028B018C4FF60C7632401E0545EAD6
:101BE00016463243794EB0420ED0794EB0420BD0F9
:101BF000B0F1804F08D0774EB04205D0764EB0425B
:101C000002D0764EB04206D14FF6FD76314044F018
:101C10000106314305E04FF6F576314044F0010608
:101C2000314302830184F0BD70B505460C46674818
:101C300085420ED0664885420BD0B5F1804F08D062
:101C40006448854205D06448854202D06348854295
:101C500000D100E000BF208850B92389A2886188A4
:101C60002846FFF7ACFFE1882846FFF79FFF25E0F5
:101C7000208804280AD12389A28861882846FFF792
:101C80005AFFE1882846FFF74BFF17E02088082815
:101C90000AD12389A28861882846FFF708FFE188D6
:101CA0002846FFF7FBFE09E02389A28861882846C1
:101CB000FFF7B9FEE1882846FFF7AAFE70BD2DE9BF
:101CC000F04105460C4600260127608808B9022627
:101CD00000E00026A088012801D1022700E00127AA
:101CE0002088A0B92389A28861882846FFF767FF6A
:101CF000E1882846FFF75AFF23893A4631462846AD
:101D0000FFF719FFE1882846FFF70AFF13E0238950
:101D1000A28861882846FFF70EFFE1882846FFF772
:101D2000FFFE23893A4631462846FFF748FFE188FF
:101D30002846FFF73BFFBDE8F0810A884B881A432D
:101D40008B881A43CB881A430B891A434B891A4351
:101D50008B891A43A0F8442070474FF6FF718180A9
:101D600000210180C1804180017270470021018003
:101D700041808180C180018141818181C181704721
:101D8000002101804180012181800021C1800181E9
:101D900070470021018041808180C18001814181A3
:101DA0008181704721B1028842F00102028004E083
:101DB00002884FF6FE731A400280704781B1B0F876
:101DC000442042F40042A0F844200FE0002C0140DF
:101DD000003401400004004000080040000C0040B6
:101DE000B0F84420C2F30E02A0F84420704710B5AA
:101DF0001AB183890B43838104E08389CC43A4B265
:101E00002340838110BD8182704741EA0203A0F81C
:101E10004830704710B51AB183890B43838104E0C1
:101E20008389CC43A4B22340838110BD01894FF63E
:101E3000F8721140018170470A46002101894FF66E
:101E40008F73194011430181704730B504460D4628
:101E500029462046FFF7F0FF208940F00700208147
:101E600030BD2DE9F04104460D4616461F46602D53
:101E700006D13B46012231462046FFF75CFE05E0D5
:101E80003B46012231462046FFF799FE294620466F
:101E9000FFF7D2FF208940F007002081BDE8F081E4
:101EA00030B50C4600210189C9B21D0642EA15452C
:101EB00025432943018130BD2DE9F04105460E46F9
:101EC00017469846002443463A4631462846FFF7CF
:101ED000E7FF2C894FF6F870044044F007044FF6F2
:101EE0008F70044044F070042C81BDE8F081F0B59F
:101EF00004460D4616461F463B46324629462046B6
:101F0000FFF7CEFF208940F480402081F0BD01859D
:101F1000828270470A46002101884FF68F7319406C
:101F2000114301807047F0B50C4615461E4600214E
:101F3000002200230189028B038C4FF6F877394089
:101F400021434FF6FC473A4040F201173A434FF61F
:101F5000DD773B40370545EA17473B430181028364
:101F60000384F0BD0A460021018B4FF68F731940A0
:101F70001143018370470A460021018B48F6FF7325
:101F80001940130641EA1341018370470A460021B4
:101F9000818B4FF68F7319401143818370470A4636
:101FA0000021818B48F6FF731940130641EA134163
:101FB0008183704721B1028842F08002028004E0F0
:101FC00002884FF67F731A400280704721B18288E1
:101FD00042F00402828004E082884FF6FB731A40CC
:101FE0008280704721B1828842F00802828004E03A
:101FF00082884FF6F7731A408280704721B1828839
:1020000042F00102828004E082884FF6FE731A409B
:10201000828070470A460021018B4FF6F773194002
:102020001143018370470A460021018B4FF2FF7371
:102030001940130641EA1341018370470A46002103
:10204000818B4FF6F77319401143818370470A461D
:102050000021818B4FF2FF731940130641EA1341AF
:10206000818370470A460021018B4FF6FB731940AC
:102070001143018370470A460021018B4FF6FF335D
:102080001940130641EA1341018370470A460021B3
:10209000818B4FF6FB7319401143818370470A46C9
:1020A0000021818B4FF6FF331940130641EA13419B
:1020B000818370470A460021018B4FF67F731940D8
:1020C0001143018370470A460021018BC1F30E01C1
:1020D000130641EA1341018370470A460021818BB0
:1020E0004FF67F7319401143818370470A460021E0
:1020F000818BC1F30E01130641EA134181837047BE
:102100000A460021018C4FF6FD73194011430184EA
:1021100070470A460021018C4FF6F77319401143AE
:10212000018470470A460021018C4FF6DF73194085
:10213000130541EA1341018470470A460021018CCE
:102140004FF67F731940130541EA1341018470472C
:102150000A460021018C4FF6FF531940130641EA4D
:102160001341018470470A460021018C4FF2FF732E
:102170001940130641EA1341018470470A460021C1
:10218000018C4DF6FF731940130741EA1341018496
:10219000704730B5002301248C40A3B2048CDD438A
:1021A000ADB22C400484048C02FA01F5ADB22C438C
:1021B000048430BD30B5002304248C40A3B2048CC9
:1021C000DD43ADB22C400484048C02FA01F5ADB2BB
:1021D0002C43048430BD70B503460020002418460B
:1021E000183001258D40ACB21D8CE643B6B23540A7
:1021F0001D8409B1082909D100EB6100056825F0AB
:10220000700505600568154305600CE00D1FADB253
:1022100000EB6500056825F4E045056005681606D5
:1022200045EA1645056070BD21B1028842F0020200
:10223000028004E002884FF6FD731A400280704766
:1022400021B1028842F00402028004E002884FF6C5
:10225000FB731A400280704721B1828842F08002ED
:10226000828004E082884FF67F731A408280704734
:1022700002884FF6F7731A40028002880A430280F0
:10228000704782884FF68F731A40828082880A4393
:102290008280704702894FF6F8731A4002810289E2
:1022A0000A430281704702894FF67F731A40028108
:1022B00002890A4302817047818470478185704793
:1022C000818670470187704781877047A0F840106A
:1022D000704702884FF6FF431A40028002880A4383
:1022E000028070470146888E70470146088F70470C
:1022F0000146888F70470146B1F84000704701469B
:10230000888C70470146088D704702460020138A6A
:102310000B4201D0012000E000207047CA43028236
:10232000704730B50246002000230024158A05EAD4
:102330000103958905EA010413B10CB1012000E005
:10234000002030BDCA4302827047000010B5044629
:10235000FC48844209D101218803FFF7D1F800210C
:102360004FF48040FFF7CCF832E0F748844209D1BF
:1023700001214804FFF7D1F800214FF40030FFF7A6
:10238000CCF825E0F148844209D101218804FFF707
:10239000C4F800214FF48020FFF7BFF818E0EC48A4
:1023A000844209D10121C804FFF7B7F800214FF496
:1023B0000020FFF7B2F80BE0E648844208D1012183
:1023C0000805FFF7AAF800214FF48010FFF7A5F8E1
:1023D00010BD2DE9F04786B005460E460024A24602
:1023E00000BFA1460027B08900B100BF2F462C8A4C
:1023F0004CF6FF700440F08804432C82AC894EF602
:10240000F3100440B08831890843718908430443BC
:10241000AC81AC8A4FF6FF400440B0890443AC82E3
:1024200001A8FEF7E6FFC748874202D1DDF810A0F9
:1024300001E0DDF80CA0A88910F4004F08D00AEBE9
:10244000CA0000EB0A1031684900B0FBF1F807E060
:102450000AEBCA0000EB0A1031688900B0FBF1F802
:102460006420B8FBF0F004012009642101FB10890D
:10247000A88910F4004F08D0322000EBC900B0FB4F
:10248000F1F000F00700044308E0322000EB0910EF
:102490006421B0FBF1F000F00F0004432C8106B082
:1024A000BDE8F0874FF41651016000218180C180A2
:1024B00001810C21418100218181704710B50246C4
:1024C0000020108A4FF2FF0318400B884C882343EA
:1024D0008C882343CC8823431843108210BD0021ED
:1024E000018041808180C180704721B1828942F49E
:1024F0000052828104E082894DF6FF731A40828186
:102500007047F0B503460024002600250020A1F501
:1025100010676A3F00D100BF1846C1F3421401F0B2
:102520001F06012707FA06F5012C01D10C3004E043
:10253000022C01D1103000E014301AB107682F438B
:10254000076002E00768AF430760F0BD10B51AB13D
:10255000838A0B43838204E0838ACC43A4B2234062
:10256000838210BD028A4FF6F0731A400282028AFB
:102570000A430282704782894FF2FF731A408281B8
:1025800082890A438281704721B1828942F0020226
:10259000828104E082894FF6FD731A408281704780
:1025A000028A4FF6DF731A400282028A0A430282CD
:1025B000704721B1028A42F48042028204E0028A1A
:1025C0004BF6FF731A4002827047C1F30802828003
:1025D000704701468888C0F308007047818941F040
:1025E000010181817047028BD2B20283028B42EAE1
:1025F000012202837047028B02F47F420283028B26
:102600000A430283704721B1828A42F0200282820B
:1026100004E0828A4FF6DF731A408282704721B14C
:10262000828A42F01002828204E0828A4FF6EF73BF
:102630001A408282704721B1828A42F00802828267
:1026400004E0828A4FF6F7731A408282704721B104
:10265000828942F40042828103E08289C2F30E0241
:102660008281704721B1828A42F40062828204E052
:10267000828A4FF2FF731A4082827047828A4FF635
:10268000FB731A408282828A0A438282704721B198
:10269000828A42F00202828204E0828A4FF6FD734F
:1026A0001A408282704702460020B1F5007F00D1B7
:1026B00000BF13880B4201D0012000E000207047CA
:1026C00001F40072B2F5007F00D100BFCA4302805E
:1026D000704770B502460024002300250020A1F5B4
:1026E00010666A3E00D100BFC1F3421501F01F031E
:1026F000012606FA03F3012D02D19689334006E044
:10270000022D02D1168A334001E0968A33400C1222
:10271000012606FA04F41688344013B10CB10120E6
:1027200000E0002070BD10B500220023A1F5106468
:102730006A3C00D100BF0A1201249440A3B2DC43DA
:10274000048010BD003801400044004000480040B3
:10275000004C004000500040064C074D06E0E06889
:1027600040F0010394E8070098471034AC42F6D3D8
:10277000FDF7E2FCCC270008EC270008014A0249DB
:1027800000F013B8470400083C00002002E008C82D
:10279000121F08C1002AFAD170477047002001E0DB
:1027A00001C1121F002AFBD170472DE9F0410446F8
:1027B0000F461646002503E03946B0476D1C641CE1
:1027C00020780028F8D12846BDE8F081EC270008E1
:1027D00000000020400000008C2700082C28000882
:1027E00040000020280400009C2700080000000092
:1027F00000000000000000000000000000000000D9
:1028000000A24A04000000000000000001020304CE
:102810000607080900000000010203040102030486
:0C2820000607080902040608000000007A
:0400000508000131BD
:00000001FF
